:100000000C9472000C9486000C9486000C9486006C
:100010000C9486000C9486000C9486000C94860048
:100020000C9486000C94BC000C9486000C94860002
:100030000C9486000C9486000C9486000C94860028
:100040000C9486000C9486000C9486000C94860018
:100050000C9486000C949E000C9486000C948600F0
:100060000C9486000C9486000C9486000C948600F8
:100070000C9486000C9486000C9486000C948600E8
:100080000C9486000C9486000C9486000C948600D8
:100090000C9486000C9486000C9486000C948600C8
:1000A0000C9486000C9486000C9486000C948600B8
:1000B0000C9486000C9486000C9486000C948600A8
:1000C0000C9486000C9486000C9486000C94860098
:1000D0000C9486000C9486000C9486000C94860088
:1000E0000C94860011241FBECFEFD1E2DEBFCDBF3E
:1000F00000E00CBF22E0A0E0B2E001C01D92AA30F7
:10010000B207E1F70E9478070C94A7080C9400004E
:10011000CF93DF93CDB7DEB70E944A020E94EA0276
:100120000E94BC010E94E8010E949A020E9478018C
:100130000E9498010000DF91CF9108951F920F92C5
:100140000FB60F9211248F939F93CF93DF93CDB768
:10015000DEB7809100029091010201969093010216
:10016000809300020000DF91CF919F918F910F90BB
:100170000FBE0F901F9018951F920F920FB60F92FF
:1001800011240BB60F922F933F934F935F938F934E
:100190009F93EF93FF93CF93DF930F920F92CDB77F
:1001A000DEB780910002909101029A838983809149
:1001B00002029091030229813A81A901481B590B3F
:1001C000CA018E30910509F008F47EC089819A81B8
:1001D000909303028093020280910602909107029D
:1001E0008130910589F483E290E0FC018081882FC1
:1001F00090E081709927009739F481E090E0909326
:1002000005028093040261C080910602909107026A
:100210008230910589F483E290E0FC018081882F8F
:1002200090E082709927009739F481E090E09093F4
:1002300005028093040249C0809106029091070252
:100240008330910589F483E290E0FC018081882F5E
:1002500090E084709927009739F481E090E09093C2
:1002600005028093040231C080910602909107023A
:100270008430910589F483E290E0FC018081882F2D
:1002800090E088709927009739F481E090E090938E
:1002900005028093040219C0809106029091070222
:1002A0008530910591F483E290E0FC018081882FF4
:1002B00090E080719927009741F481E090E090935D
:1002C00005028093040201C000000F900F90DF919F
:1002D000CF91FF91EF919F918F915F914F913F91BE
:1002E0002F910F900BBE0F900FBE0F901F9018957F
:1002F000CF93DF93CDB7DEB784E490E022E0FC013A
:10030000208385E490E023E0FC01208387E490E0F3
:1003100029EFFC0120838EE690E0FC0120818EE62F
:1003200090E02260FC0120830000DF91CF910895CE
:10033000CF93DF93CDB7DEB78BE690E0FC01208151
:100340008BE690E02F61FC01208388E690E0FC01C1
:10035000208188E690E02160FC0120838BE390E01F
:10036000FC0120818BE390E02160FC0120837894E4
:100370000000DF91CF910895CF93DF93CDB7DEB723
:1003800087E290E0FC01208187E290E02E7FFC0173
:10039000208387E290E0FC01208187E290E02D7FBE
:1003A000FC01208388E290E0FC01208188E290E05B
:1003B0002160FC01208388E290E0FC01208188E23A
:1003C00090E02260FC0120830000DF91CF9108952E
:1003D000CF93DF93CDB7DEB784E290E0FC012081BC
:1003E00084E290E02E7FFC01208384E290E0FC0117
:1003F000208184E290E02D7FFC01208384E290E064
:10040000FC01208184E290E02B7FFC01208384E2C8
:1004100090E0FC01208184E290E0277FFC012083B2
:1004200084E290E0FC01208184E290E02F7EFC01D8
:10043000208385E290E0FC01208185E290E021604C
:10044000FC01208385E290E0FC01208185E290E0C0
:100450002260FC01208385E290E0FC01208185E29E
:1004600090E02460FC01208385E290E0FC01208183
:1004700085E290E02860FC01208385E290E0FC01A9
:10048000208185E290E02061FC0120830000DF9163
:10049000CF910895CF93DF93CDB7DEB781E290E09F
:1004A000FC01208181E290E02460FC01208381E254
:1004B00090E0FC01208181E290E02860FC01208333
:1004C0008DE290E0FC0120818DE290E02860FC014B
:1004D000208383E390E0FC01208183E390E02062AD
:1004E000FC01208382E290E0FC01208182E290E026
:1004F0002B7FFC01208382E290E0FC01208182E2DC
:1005000090E0277FFC0120838EE290E0FC012081B7
:100510008EE290E0277FFC01208384E390E0FC01E1
:10052000208184E390E02F7DFC0120830000DF9197
:10053000CF910895CF93DF93CDB7DEB781E290E0FE
:10054000FC01208181E290E02160FC01208381E2B6
:1005500090E0FC01208181E290E02260FC01208398
:100560008DE290E0FC0120818DE290E02061FC01B1
:1005700020838DE290E0FC0120818DE290E02062FA
:10058000FC01208382E290E0FC01208182E290E085
:100590002E7FFC01208382E290E0FC01208182E238
:1005A00090E02D7FFC0120838EE290E0FC01208111
:1005B0008EE290E02F7EFC0120838EE290E0FC0131
:1005C00020818EE290E02F7DFC0120830000DF91EE
:1005D000CF910895CF93DF93CDB7DEB787E091E059
:1005E000FC01208187E091E02064FC01208388E009
:1005F00091E0FC01208188E091E02F7BFC012083C9
:100600000000DF91CF910895CF93DF93CDB7DEB790
:1006100088E091E0FC01208188E091E02064FC0109
:1006200020830000DF91CF910895CF93DF93CDB762
:10063000DEB788E091E0FC01208188E091E02F7B2B
:10064000FC0120830000DF91CF910895CF93DF93C9
:10065000CDB7DEB782E290E0FC01208182E290E03B
:100660002160FC01208382E290E0FC01208182E293
:1006700090E02260FC0120838EE290E0FC0120816A
:100680008EE290E02061FC0120838EE290E0FC018C
:1006900020818EE290E02F7DFC0120830000DF911D
:1006A000CF910895CF93DF93CDB7DEB782E290E08C
:1006B000FC01208182E290E02E7FFC01208382E217
:1006C00090E0FC01208182E290E02D7FFC012083FC
:1006D0008EE290E0FC0120818EE290E02F7EFC0112
:1006E00020838EE290E0FC0120818EE290E02F7D5D
:1006F000FC0120830000DF91CF910895CF93DF9319
:10070000CDB7DEB782E290E0FC01208182E290E08A
:100710002160FC01208382E290E0FC01208182E2E2
:1007200090E02260FC0120838EE290E0FC012081B9
:100730008EE290E02F7EFC0120838EE290E0FC01AF
:1007400020818EE290E02062FC0120830000DF9196
:10075000CF910895CF93DF93CDB7DEB782E290E0DB
:10076000FC01208182E290E02460FC01208382E28F
:1007700090E0FC01208182E290E02860FC0120836F
:100780008EE290E0FC0120818EE290E02860FC0186
:10079000208384E390E0FC01208184E390E02F7DBE
:1007A000FC0120830000DF91CF910895CF93DF9368
:1007B000CDB7DEB782E290E0FC01208182E290E0DA
:1007C0002B7FFC01208382E290E0FC01208182E209
:1007D00090E0277FFC0120838EE290E0FC012081E5
:1007E0008EE290E0277FFC01208384E390E0FC010F
:1007F000208184E390E02F7DFC0120830000DF91C5
:10080000CF910895CF93DF93CDB7DEB782E290E02A
:10081000FC01208182E290E02460FC01208382E2DE
:1008200090E0FC01208182E290E02860FC012083BE
:100830008EE290E0FC0120818EE290E0277FFC01B7
:10084000208384E390E0FC01208184E390E0206237
:10085000FC0120830000DF91CF910895CF93DF93B7
:100860000F920F92CDB7DEB79A83898389819A81DF
:1008700090930702809306021092050210920402E0
:10088000209106023091070280910802909109029E
:100890002817390759F054F00E9426030000809170
:1008A0000402909105020097D1F314C02091060232
:1008B00030910702809108029091090228173907A8
:1008C0004CF40E947E030000809104029091050286
:1008D0000097D1F30E945203809106029091070283
:1008E000909309028093080200000F900F90DF910F
:1008F000CF910895CF93DF93CDB7DEB7C654D1091A
:100900000FB6F894DEBF0FBECDBF19821A820E94C7
:10091000AA0389818823E9F786E290E0DC018C91C3
:10092000882F90E081709927009799F780E090E0F8
:10093000A0E2B1E48B839C83AD83BE8320E030E0F2
:100940004AE755E46B817C818D819E810E9412086B
:100950006FA378A789A79AA78FA198A5A9A5BAA5DB
:100960008F839887A987BA8720E030E040E85FE36B
:100970006F81788589859A850E948C0788232CF45D
:1009800081E090E09C878B8755C020E03FEF4FE7E8
:1009900057E46F81788589859A850E940D088823A0
:1009A000D9F1D4F120E030E040E251E46B817C8168
:1009B0008D819E810E9412086BA77CA78DA79EA7A0
:1009C0008BA59CA5ADA5BEA58F8F98A3A9A3BAA3FF
:1009D0006F8D78A189A19AA10E9491076FA778AB2A
:1009E00089AB9AABAFA5B8A9BC87AB8710C080E92B
:1009F00091E09E878D878D859E850197F1F79E8773
:100A00008D8700008B859C8501979C878B878B85C4
:100A10009C85009761F719C06F81788589859A85D3
:100A20000E9491076BAB7CAB8DAB9EABEBA9FCA995
:100A3000FC87EB878B859C85988B8F878F85988922
:100A40000197F1F7988B8F87000086E290E0DC0138
:100A50008C91882F90E081709927009709F059CFE9
:100A60000E94D6030E94040381E0898300000E9453
:100A700002048A818823E9F786E290E0FC01808104
:100A8000882F90E082709927009799F780E090E096
:100A9000A0E2B1E4898B9A8BAB8BBC8B20E030E079
:100AA0004AE755E469897A898B899C890E941208F2
:100AB0006FAB78AF89AF9AAF8FA998ADA9ADBAAD3A
:100AC0008D8B9E8BAF8BB88F20E030E040E85FE3EA
:100AD0006D897E898F89988D0E948C0788232CF4DC
:100AE00081E090E09A8F898F5EC020E03FEF4FE772
:100AF00057E46D897E898F89988D0E940D0888231F
:100B000009F00CF43EC020E030E040E251E4698995
:100B10007A898B899C890E9412086BAF7CAF8DAF5C
:100B20009EAF8BAD9CADADADBEAD8BA39CA3ADA375
:100B3000BEA36BA17CA18DA19EA10E9491072396CB
:100B40006CAF7DAF8EAF9FAF23972196AEADBFAD9B
:100B50002197BA8FA98F10C080E991E09C8F8B8F6D
:100B60008B8D9C8D0197F1F79C8F8B8F0000898D69
:100B70009A8D01979A8F898F898D9A8D009761F749
:100B80001DC06D897E898F89988D0E949107279657
:100B90006CAF7DAF8EAF9FAF27972596EEADFFADC3
:100BA0002597FA8FE98F898D9A8D9E8F8D8F8D8DE8
:100BB0009E8D0197F1F79E8F8D8F000086E290E069
:100BC000DC018C91882F90E082709927009709F0C2
:100BD00050CF0E94D60381E08A8300000000CA5BE8
:100BE000DF4F0FB6F894DEBF0FBECDBFDF91CF91C0
:100BF0000895CF93DF93CDB7DEB7C654D1090FB6B2
:100C0000F894DEBF0FBECDBF19821A820E94AA03DC
:100C100089818823E9F786E290E0DC018C91882FB6
:100C200090E081709927009799F780E090E0A0E22A
:100C3000B1E48B839C83AD83BE8320E030E04AE740
:100C400055E46B817C818D819E810E9412086FA387
:100C500078A789A79AA78FA198A5A9A5BAA58F83D8
:100C60009887A987BA8720E030E040E85FE36F818A
:100C7000788589859A850E948C0788232CF481E0E9
:100C800090E09C878B8755C020E03FEF4FE757E40B
:100C90006F81788589859A850E940D088823D9F10E
:100CA000D4F120E030E040E251E46B817C818D8121
:100CB0009E810E9412086BA77CA78DA79EA78BA57B
:100CC0009CA5ADA5BEA58F8F98A3A9A3BAA36F8D30
:100CD00078A189A19AA10E9491076FA778AB89ABEF
:100CE0009AABAFA5B8A9BC87AB8710C080E991E0EB
:100CF0009E878D878D859E850197F1F79E878D87CD
:100D000000008B859C8501979C878B878B859C85B4
:100D1000009761F719C06F81788589859A850E944F
:100D200091076BAB7CAB8DAB9EABEBA9FCA9FC87B1
:100D3000EB878B859C85988B8F878F85988901970A
:100D4000F1F7988B8F87000086E290E0DC018C91B0
:100D5000882F90E081709927009709F059CF0E9461
:100D6000D6030E94150381E0898300000E940204DB
:100D70008A818823E9F786E290E0FC018081882F50
:100D800090E082709927009799F780E090E0A0E2C8
:100D9000B1E4898B9A8BAB8BBC8B20E030E04AE7C7
:100DA00055E469897A898B899C890E9412086FAB06
:100DB00078AF89AF9AAF8FA998ADA9ADBAAD8D8B39
:100DC0009E8BAF8BB88F20E030E040E85FE36D8909
:100DD0007E898F89988D0E948C0788232CF481E06E
:100DE00090E09A8F898F5EC020E03FEF4FE757E495
:100DF0006D897E898F89988D0E940D08882309F05E
:100E00000CF43EC020E030E040E251E469897A8988
:100E10008B899C890E9412086BAF7CAF8DAF9EAF0F
:100E20008BAD9CADADADBEAD8BA39CA3ADA3BEA35E
:100E30006BA17CA18DA19EA10E94910723966CAF0E
:100E40007DAF8EAF9FAF23972196AEADBFAD2197FB
:100E5000BA8FA98F10C080E991E09C8F8B8F8B8D0A
:100E60009C8D0197F1F79C8F8B8F0000898D9A8D57
:100E700001979A8F898F898D9A8D009761F71DC090
:100E80006D897E898F89988D0E94910727966CAF16
:100E90007DAF8EAF9FAF27972596EEADFFAD25971F
:100EA000FA8FE98F898D9A8D9E8F8D8F8D8D9E8D76
:100EB0000197F1F79E8F8D8F000086E290E0DC01B4
:100EC0008C91882F90E082709927009709F050CF7D
:100ED0000E94D60381E08A8300000000CA5BDF4FD6
:100EE0000FB6F894DEBF0FBECDBFDF91CF9108954E
:100EF000CF93DF93CDB7DEB70E94880082E090E009
:100F00000E942E040E947A0484E090E00E942E0445
:100F10000E94F9050000FECF0E94C00708F481E09E
:100F200008950E94EC0788F09F5798F0B92F9927F1
:100F3000B751B0F0E1F0660F771F881F991F1AF0C4
:100F4000BA95C9F714C0B13091F00E940608B1E01B
:100F500008950C940608672F782F8827B85F39F01A
:100F6000B93FCCF3869577956795B395D9F73EF45D
:100F700090958095709561957F4F8F4F9F4F089505
:100F8000990F0008550FAA0BE0E8FEEF161617069A
:100F9000E807F907C0F012161306E407F50798F002
:100FA000621B730B840B950B39F40A2661F0232B1B
:100FB000242B252B21F408950A2609F4A140A69597
:100FC0008FEF811D811D089557FD9058440F551FC7
:100FD00059F05F3F71F04795880F97FB991F61F0BB
:100FE0009F3F79F087950895121613061406551F32
:100FF000F2CF4695F1DF08C0161617061806991F9E
:10100000F1CF86957105610508940895E894BB2792
:1010100066277727CB0197F908950E94C00708F447
:101020008FEF08950E9425080C9496080E94880866
:1010300038F00E948F0820F0952311F00C947F085F
:101040000C94850811240C9407080E94E40770F39F
:10105000959FC1F3950F50E0551F629FF001729F5D
:10106000BB27F00DB11D639FAA27F00DB11DAA1F6C
:10107000649F6627B00DA11D661F829F2227B00DB9
:10108000A11D621F739FB00DA11D621F839FA00D44
:10109000611D221F749F3327A00D611D231F849F94
:1010A000600D211D822F762F6A2F11249F575040EB
:1010B0009AF0F1F088234AF0EE0FFF1FBB1F661F66
:1010C000771F881F91505040A9F79E3F510580F02F
:1010D0000C947F080C9407085F3FE4F3983ED4F328
:1010E000869577956795B795F795E7959F5FC1F7D3
:1010F000FE2B880F911D9695879597F9089597F97E
:101100009F6780E870E060E008959FEF80EC0895AD
:1011100000240A94161617061806090608950024D6
:101120000A9412161306140605060895092E039450
:10113000000C11F4882352F0BB0F40F4BF2B11F4C4
:1011400060FF04C06F5F7F4F8F4F9F4F0895F894EB
:02115000FFCFCF
:00000001FF
