:100000000C9472000C9493000C9493000C94930045
:100010000C9493000C9493000C9493000C94930014
:100020000C9493000C9493000C9493000C94930004
:100030000C9493000C9493000C9493000C949300F4
:100040000C9493000C9493000C9493000C949300E4
:100050000C9493000C9493000C9493000C949300D4
:100060000C9493000C9493000C9493000C949300C4
:100070000C9493000C9493000C9493000C949300B4
:100080000C9493000C9493000C9493000C949300A4
:100090000C9493000C9493000C9493000C94930094
:1000A0000C9493000C9493000C9493000C94930084
:1000B0000C9493000C9493000C9493000C94930074
:1000C0000C9493000C9493000C9493000C94930064
:1000D0000C9493000C9493000C9493000C94930054
:1000E0000C94930011241FBECFEFD1E2DEBFCDBF31
:1000F00000E00CBF12E0A0E0B2E0E6E3F0E100E0D7
:100100000BBF02C007900D92A637B107D9F722E0C6
:10011000A6E7B2E001C01D92A738B207E1F70E943E
:10012000E0070C9419080C940000CF93DF93CDB72F
:10013000DEB781E290E0FC01208181E290E0206165
:10014000FC01208381E290E0FC01208181E290E0CB
:100150002062FC01208381E091E0FC01208181E0AC
:1001600091E02860FC01208381E091E0FC01208186
:1001700081E091E02061FC01208382E290E0FC01BB
:10018000208182E290E02F7EFC01208382E290E0D9
:10019000FC01208182E290E02F7DFC01208382E03F
:1001A00091E0FC01208182E091E0277FFC01208327
:1001B00082E091E0FC01208182E091E02F7EFC0151
:1001C00020830000DF91CF910895CF93DF93CDB7C7
:1001D000DEB781E290E0FC01208181E290E02460C2
:1001E000FC01208381E290E0FC01208181E290E02B
:1001F0002860FC0120838DE290E0FC0120818DE2EB
:1002000090E02860FC01208383E390E0FC012081E2
:1002100083E390E02062FC01208382E290E0FC0115
:10022000208182E290E02B7FFC01208382E290E03B
:10023000FC01208182E290E0277FFC0120838EE296
:1002400090E0FC0120818EE290E0277FFC0120837A
:1002500084E390E0FC01208184E390E02F7DFC01A9
:1002600020830000DF91CF910895CF93DF93CDB726
:10027000DEB787E091E0FC01208187E091E020611A
:10028000FC01208387E091E0FC01208187E091E080
:100290002062FC0120838DE290E0FC0120818DE250
:1002A00090E02061FC0120838DE290E0FC01208140
:1002B0008DE290E02062FC01208388E091E0FC0167
:1002C000208188E091E02F7EFC01208388E091E08E
:1002D000FC01208188E091E02F7DFC0120838EE2EB
:1002E00090E0FC0120818EE290E02F7EFC012083D3
:1002F0008EE290E0FC0120818EE290E02F7DFC01F7
:1003000020830000DF91CF910895CF93DF93CDB785
:10031000DEB782E290E0FC01208182E290E0206181
:10032000FC01208382E290E0FC01208182E290E0E7
:100330002062FC01208382E091E0FC01208182E0C8
:1003400091E02860FC01208382E091E0FC012081A3
:1003500082E091E02F7EFC0120830000DF91CF91AD
:100360000895CF93DF93CDB7DEB782E290E0FC0132
:10037000208182E290E02F7CFC01208382E091E0EA
:10038000FC01208182E091E0277EFC0120830000B7
:10039000DF91CF910895CF93DF93CDB7DEB782E29F
:1003A00090E0FC01208182E290E02061FC0120834A
:1003B00082E290E0FC01208182E290E02062FC0178
:1003C000208382E091E0FC01208182E091E0277FA0
:1003D000FC01208382E091E0FC01208182E091E039
:1003E0002061FC0120830000DF91CF910895CF931D
:1003F000DF93CDB7DEB782E290E0FC01208182E29C
:1004000090E02460FC01208382E290E0FC012081E6
:1004100082E290E02860FC0120838EE290E0FC0103
:1004200020818EE290E02860FC01208384E390E04C
:10043000FC01208184E390E02F7DFC0120830000FB
:10044000DF91CF910895CF93DF93CDB7DEB782E2EE
:1004500090E0FC01208182E290E0237FFC01208378
:100460008EE290E0FC0120818EE290E0277FFC018B
:10047000208384E390E0FC01208184E390E02F7DE1
:10048000FC0120830000DF91CF910895CF93DF938B
:10049000CDB7DEB782E290E0FC01208182E290E0FD
:1004A0002460FC01208382E290E0FC01208182E252
:1004B00090E02860FC0120838EE290E0FC01208126
:1004C0008EE290E0277FFC01208384E390E0FC0132
:1004D000208184E390E02062FC0120830000DF9112
:1004E000CF910895CF93DF93CDB7DEB788E091E049
:1004F000FC01208188E091E02061FC01208388E0FC
:1005000091E0FC01208188E091E02062FC012083E1
:100510008EE290E0FC0120818EE290E02061FC01FF
:1005200020838EE290E0FC0120818EE290E02F7D1E
:10053000FC0120830000DF91CF910895CF93DF93DA
:10054000CDB7DEB788E091E0FC01208188E091E042
:100550002F7CFC0120838EE290E0FC0120818EE262
:1005600090E02F7CFC0120830000DF91CF91089563
:10057000CF93DF93CDB7DEB788E091E0FC01208117
:1005800088E091E02061FC01208388E091E0FC019B
:10059000208188E091E02062FC0120838EE290E0DF
:1005A000FC0120818EE290E02F7EFC0120838EE210
:1005B00090E0FC0120818EE290E02062FC0120832B
:1005C0000000DF91CF910895CF93DF93CDB7DEB7D1
:1005D00087E091E0FC01208187E091E02F7BFC0126
:1005E000208388E091E0FC01208188E091E02F7B6E
:1005F000FC0120830000DF91CF910895CF93DF931A
:10060000CDB7DEB788E091E0FC01208188E091E081
:100610002064FC0120830000DF91CF910895CF93E7
:10062000DF93CDB7DEB788E091E0FC01208188E060
:1006300091E02F7BFC0120830000DF91CF91089592
:10064000CF93DF9300D00F92CDB7DEB71A82198215
:1006500053C088E091E0FC01208188E091E02F60A8
:10066000FC01208388E091E0FC018081282F81E05B
:1006700090E0098002C0880F991F0A94E2F78095E4
:10068000282388E091E0FC0120831C821B8229C082
:1006900086E091E0FC018081882F90E02B813C81F5
:1006A0002C5F3F4F022E02C0959587950A94E2F782
:1006B00081709927009781F489819A819C01220F8A
:1006C000331F220F331F8B819C81820F931F805019
:1006D0009E4FFC01808118C08B819C8101969C8378
:1006E0008B838B819C818330910591F28CF289817F
:1006F0009A8101969A83898389819A8183309105B1
:1007000009F00CF4A6CF80E00F900F900F900F909F
:10071000DF91CF910895CF93DF930F92CDB7DEB7DE
:10072000898389818F32F9F0F4F08981893309F066
:10073000D4F42091760230917702C901880F991F75
:10074000880F991F820F931F880F991F9C01898121
:10075000082E000C990BC097820F931F909377027D
:100760008093760236C08981833499F580917C022A
:1007700090917D028130910509F05CF580917C02B9
:1007800090917D02009749F48091760290917702D2
:1007900090937902809378020FC080917C029091AF
:1007A0007D028130910541F480917602909177022B
:1007B00090937B0280937A021092770210927602D5
:1007C00080917C0290917D02019690937D028093AE
:1007D0007C0200000F90DF91CF910895CF93DF93BB
:1007E0000F920F92CDB7DEB781E090E09A838983B4
:1007F00081E290E02FE7FC01208387E091E02FE089
:10080000FC01208388E091E020EFFC01208318C0E8
:100810000E94200380937E0280917E02882321F033
:1008200080917E020E948B0386E091E0FC01808132
:10083000882F90E080749927009711F01A8219820E
:1008400089819A81009721F700000F900F90DF9126
:10085000CF910895CF93DF93CDB7DEB70E943C04CC
:100860000E9495000E94E5000E9435010E94E4026A
:100870000000DF91CF910895CF93DF93CDB7DEB71E
:1008800087E091E0FC01208187E091E02D7FFC0171
:10089000208387E091E0FC01208187E091E02B7FBD
:1008A000FC01208387E091E0FC01208187E091E05A
:1008B000277FFC01208387E091E0FC01208187E015
:1008C00091E02F7EFC01208387E091E0FC012081F4
:1008D00087E091E02F7DFC0120838DE290E0FC0118
:1008E00020818DE290E02E7FFC0120838DE290E05C
:1008F000FC0120818DE290E0277FFC0120838DE2C6
:1009000090E0FC0120818DE290E02B7FFC012083B0
:100910008DE290E0FC0120818DE290E02D7FFC01D2
:1009200020838DE290E0FC0120818DE290E02E7F1B
:10093000FC0120830000DF91CF910895CF93DF93D6
:10094000CDB7DEB7E6970FB6F894DEBF0FBECDBFCA
:100950009EAB8DAB82E3E2E1F2E0DE011396019003
:100960000D928A95E1F78DA99EA90197880F991F8D
:100970009E012F5F3F4F820F931F0296FC018081E3
:1009800091819A8389838091830290918402298145
:100990003A812817390709F00CF487C010928002B9
:1009A00010927F0275C00E94850189819A818130F1
:1009B000910591F486E091E0FC018081882F90E020
:1009C00082709927009741F00E94B10181E090E088
:1009D0009093800280937F0289819A818230910571
:1009E00091F486E091E0FC018081882F90E0847092
:1009F0009927009741F00E94B10181E090E0909327
:100A0000800280937F0289819A818330910591F4DD
:100A100086E091E0FC018081882F90E08870992722
:100A2000009741F00E94B10181E090E09093800234
:100A300080937F0289819A818430910591F486E0C8
:100A400091E0FC018081882F90E0807199270097C8
:100A500041F00E94B10181E090E090938002809388
:100A60007F0289819A818530910591F486E091E039
:100A7000FC018081882F90E080729927009741F0D7
:100A80000E94B10181E090E09093800280937F0208
:100A900080917F0290918002009709F484CF898130
:100AA0009A81909384028093830280918302909133
:100AB000840229813A81281739070CF087C01092E7
:100AC000800210927F0275C00E94CB0189819A81B9
:100AD0008130910591F486E091E0FC018081882FBE
:100AE00090E082709927009741F00E94B10181E067
:100AF00090E09093800280937F0289819A81823076
:100B0000910591F486E091E0FC018081882F90E0CE
:100B100084709927009741F00E94B10181E090E034
:100B20009093800280937F0289819A81833091051E
:100B300091F486E091E0FC018081882F90E088703C
:100B40009927009741F00E94B10181E090E09093D5
:100B5000800280937F0289819A818430910591F48B
:100B600086E091E0FC018081882F90E080719927D8
:100B7000009741F00E94B10181E090E090938002E3
:100B800080937F0289819A818530910591F486E076
:100B900091E0FC018081882F90E080729927009776
:100BA00041F00E94B10181E090E090938002809337
:100BB0007F0280917F0290918002009709F484CF98
:100BC00089819A8190938402809383020000E69643
:100BD0000FB6F894DEBF0FBECDBFDF91CF91089561
:100BE000CF93DF93CDB7DEB7E6970FB6F894DEBFAD
:100BF0000FBECDBF9EAB8DAB82E3E4E4F2E0DE013D
:100C0000139601900D928A95E1F78DA99EA90197FF
:100C1000880F991F9E012F5F3F4F820F931F0296EF
:100C2000FC01808191819A838983809185029091D2
:100C3000860229813A812817390709F00CF487C008
:100C4000109282021092810275C00E94F701898180
:100C50009A818130910591F489E091E0FC018081D5
:100C6000882F90E081709927009741F00E9423021D
:100C700081E090E0909382028093810289819A8141
:100C80008230910591F483E290E0FC018081882F0D
:100C900090E088709927009741F00E94230281E03C
:100CA00090E0909382028093810289819A818330BF
:100CB000910591F483E290E0FC018081882F90E01F
:100CC00084709927009741F00E94230281E090E010
:100CD000909382028093810289819A818430910568
:100CE00091F483E290E0FC018081882F90E0827093
:100CF0009927009741F00E94230281E090E09093B1
:100D000082028093810289819A818530910591F4D4
:100D100083E290E0FC018081882F90E08170992728
:100D2000009741F00E94230281E090E090938202BC
:100D3000809381028091810290918202009709F450
:100D400084CF89819A8190938602809385028091D5
:100D500085029091860229813A81281739070CF083
:100D600087C0109282021092810275C00E944602D2
:100D700089819A818130910591F489E091E0FC01AB
:100D80008081882F90E081709927009741F00E9420
:100D9000230281E090E09093820280938102898116
:100DA0009A818230910591F483E290E0FC01808188
:100DB000882F90E088709927009741F00E942302C5
:100DC00081E090E0909382028093810289819A81F0
:100DD0008330910591F483E290E0FC018081882FBB
:100DE00090E084709927009741F00E94230281E0EF
:100DF00090E0909382028093810289819A8184306D
:100E0000910591F483E290E0FC018081882F90E0CD
:100E100082709927009741F00E94230281E090E0C0
:100E2000909382028093810289819A818530910515
:100E300091F483E290E0FC018081882F90E0817042
:100E40009927009741F00E94230281E090E090935F
:100E500082028093810280918102909182020097A8
:100E600009F484CF89819A819093860280938502C8
:100E70000000E6960FB6F894DEBF0FBECDBFDF913F
:100E8000CF910895CF93DF9300D000D00F920F92AF
:100E9000CDB7DEB71A82198281E090E09E838D8300
:100EA00081E090E098878F831C821B8289819A81E0
:100EB0000097C1F48B819C810097A1F40E9472027B
:100EC0008F8198858130910569F40E949E020E946D
:100ED000FE0281E090E09A8389838B819C81019658
:100EE0009C838B8389819A818130910581F48B81E8
:100EF0009C818130910559F40E94B8028D819E81B8
:100F00008130910521F40E949E021A82198200000C
:100F100028960FB6F894DEBF0FBECDBFDF91CF91FC
:100F20000895CF93DF9300D000D00F920F92CDB7EA
:100F3000DEB71A82198281E090E09E838D8381E082
:100F400090E098878F831C821B8289819A81009709
:100F5000C1F48B819C810097A1F40E9472028F8161
:100F600098858130910569F40E949E020E940F03CA
:100F700081E090E09A8389838B819C8101969C8398
:100F80008B8389819A818130910581F48B819C8149
:100F90008130910559F40E94B8028D819E81813083
:100FA000910521F40E949E021A821982000028965F
:100FB0000FB6F894DEBF0FBECDBFDF91CF9108957D
:100FC000CF93DF930F920F92CDB7DEB70E942A0422
:100FD0000E94EE0320C080917802909179029A835A
:100FE000898389819A810E949E0489819A810E94C5
:100FF000F0050E94420780917A0290917B029A83C9
:10100000898389819A810E949E0489819A810E94A4
:10101000F0050E9491078091100290911102813099
:101020009105C9F280E090E00F900F90DF91CF9191
:061030000895F894FFCFC3
:101036003132334134353642373839432A30234446
:101046000100010001000100010001000200020090
:101056000200020002000300030003000300030075
:101066000400040004000400040005000500050057
:101076000500050001000200030004000500010050
:101086000200030004000500010002000300040042
:101096000500010002000300040005000100020033
:0610A60003000400050038
:00000001FF
